{
  "_format": "hh3-artifact-1",
  "contractName": "MyToken",
  "sourceName": "contracts/MyToken.sol",
  "abi": [
    {
      "inputs": [],
      "stateMutability": "nonpayable",
      "type": "constructor"
    },
    {
      "inputs": [
        {
          "internalType": "address",
          "name": "spender",
          "type": "address"
        },
        {
          "internalType": "uint256",
          "name": "allowance",
          "type": "uint256"
        },
        {
          "internalType": "uint256",
          "name": "needed",
          "type": "uint256"
        }
      ],
      "name": "ERC20InsufficientAllowance",
      "type": "error"
    },
    {
      "inputs": [
        {
          "internalType": "address",
          "name": "sender",
          "type": "address"
        },
        {
          "internalType": "uint256",
          "name": "balance",
          "type": "uint256"
        },
        {
          "internalType": "uint256",
          "name": "needed",
          "type": "uint256"
        }
      ],
      "name": "ERC20InsufficientBalance",
      "type": "error"
    },
    {
      "inputs": [
        {
          "internalType": "address",
          "name": "approver",
          "type": "address"
        }
      ],
      "name": "ERC20InvalidApprover",
      "type": "error"
    },
    {
      "inputs": [
        {
          "internalType": "address",
          "name": "receiver",
          "type": "address"
        }
      ],
      "name": "ERC20InvalidReceiver",
      "type": "error"
    },
    {
      "inputs": [
        {
          "internalType": "address",
          "name": "sender",
          "type": "address"
        }
      ],
      "name": "ERC20InvalidSender",
      "type": "error"
    },
    {
      "inputs": [
        {
          "internalType": "address",
          "name": "spender",
          "type": "address"
        }
      ],
      "name": "ERC20InvalidSpender",
      "type": "error"
    },
    {
      "anonymous": false,
      "inputs": [
        {
          "indexed": true,
          "internalType": "address",
          "name": "owner",
          "type": "address"
        },
        {
          "indexed": true,
          "internalType": "address",
          "name": "spender",
          "type": "address"
        },
        {
          "indexed": false,
          "internalType": "uint256",
          "name": "value",
          "type": "uint256"
        }
      ],
      "name": "Approval",
      "type": "event"
    },
    {
      "anonymous": false,
      "inputs": [
        {
          "indexed": true,
          "internalType": "address",
          "name": "from",
          "type": "address"
        },
        {
          "indexed": true,
          "internalType": "address",
          "name": "to",
          "type": "address"
        },
        {
          "indexed": false,
          "internalType": "uint256",
          "name": "value",
          "type": "uint256"
        }
      ],
      "name": "Transfer",
      "type": "event"
    },
    {
      "inputs": [],
      "name": "TOTAL_SUPPLY",
      "outputs": [
        {
          "internalType": "uint256",
          "name": "",
          "type": "uint256"
        }
      ],
      "stateMutability": "view",
      "type": "function"
    },
    {
      "inputs": [
        {
          "internalType": "address",
          "name": "owner",
          "type": "address"
        },
        {
          "internalType": "address",
          "name": "spender",
          "type": "address"
        }
      ],
      "name": "allowance",
      "outputs": [
        {
          "internalType": "uint256",
          "name": "",
          "type": "uint256"
        }
      ],
      "stateMutability": "view",
      "type": "function"
    },
    {
      "inputs": [
        {
          "internalType": "address",
          "name": "spender",
          "type": "address"
        },
        {
          "internalType": "uint256",
          "name": "value",
          "type": "uint256"
        }
      ],
      "name": "approve",
      "outputs": [
        {
          "internalType": "bool",
          "name": "",
          "type": "bool"
        }
      ],
      "stateMutability": "nonpayable",
      "type": "function"
    },
    {
      "inputs": [
        {
          "internalType": "address",
          "name": "account",
          "type": "address"
        }
      ],
      "name": "balanceOf",
      "outputs": [
        {
          "internalType": "uint256",
          "name": "",
          "type": "uint256"
        }
      ],
      "stateMutability": "view",
      "type": "function"
    },
    {
      "inputs": [],
      "name": "decimals",
      "outputs": [
        {
          "internalType": "uint8",
          "name": "",
          "type": "uint8"
        }
      ],
      "stateMutability": "view",
      "type": "function"
    },
    {
      "inputs": [],
      "name": "name",
      "outputs": [
        {
          "internalType": "string",
          "name": "",
          "type": "string"
        }
      ],
      "stateMutability": "view",
      "type": "function"
    },
    {
      "inputs": [],
      "name": "symbol",
      "outputs": [
        {
          "internalType": "string",
          "name": "",
          "type": "string"
        }
      ],
      "stateMutability": "view",
      "type": "function"
    },
    {
      "inputs": [],
      "name": "totalSupply",
      "outputs": [
        {
          "internalType": "uint256",
          "name": "",
          "type": "uint256"
        }
      ],
      "stateMutability": "view",
      "type": "function"
    },
    {
      "inputs": [
        {
          "internalType": "address",
          "name": "to",
          "type": "address"
        },
        {
          "internalType": "uint256",
          "name": "value",
          "type": "uint256"
        }
      ],
      "name": "transfer",
      "outputs": [
        {
          "internalType": "bool",
          "name": "",
          "type": "bool"
        }
      ],
      "stateMutability": "nonpayable",
      "type": "function"
    },
    {
      "inputs": [
        {
          "internalType": "address",
          "name": "from",
          "type": "address"
        },
        {
          "internalType": "address",
          "name": "to",
          "type": "address"
        },
        {
          "internalType": "uint256",
          "name": "value",
          "type": "uint256"
        }
      ],
      "name": "transferFrom",
      "outputs": [
        {
          "internalType": "bool",
          "name": "",
          "type": "bool"
        }
      ],
      "stateMutability": "nonpayable",
      "type": "function"
    }
  ],
  "bytecode": "0x608060405234801561000f575f5ffd5b506040518060400160405280600981526020016826b4b5b0aa37b5b2b760b91b815250604051806040016040528060048152602001634d494b4160e01b815250816003908161005e9190610288565b50600461006b8282610288565b5050506100883369d3c21bcecceda100000061008d60201b60201c565b610367565b6001600160a01b0382166100bb5760405163ec442f0560e01b81525f60048201526024015b60405180910390fd5b6100c65f83836100ca565b5050565b6001600160a01b0383166100f4578060025f8282546100e99190610342565b909155506101649050565b6001600160a01b0383165f90815260208190526040902054818110156101465760405163391434e360e21b81526001600160a01b038516600482015260248101829052604481018390526064016100b2565b6001600160a01b0384165f9081526020819052604090209082900390555b6001600160a01b0382166101805760028054829003905561019e565b6001600160a01b0382165f9081526020819052604090208054820190555b816001600160a01b0316836001600160a01b03167fddf252ad1be2c89b69c2b068fc378daa952ba7f163c4a11628f55a4df523b3ef836040516101e391815260200190565b60405180910390a3505050565b634e487b7160e01b5f52604160045260245ffd5b600181811c9082168061021857607f821691505b60208210810361023657634e487b7160e01b5f52602260045260245ffd5b50919050565b601f82111561028357805f5260205f20601f840160051c810160208510156102615750805b601f840160051c820191505b81811015610280575f815560010161026d565b50505b505050565b81516001600160401b038111156102a1576102a16101f0565b6102b5816102af8454610204565b8461023c565b6020601f8211600181146102e7575f83156102d05750848201515b5f19600385901b1c1916600184901b178455610280565b5f84815260208120601f198516915b8281101561031657878501518255602094850194600190920191016102f6565b508482101561033357868401515f19600387901b60f8161c191681555b50505050600190811b01905550565b8082018082111561036157634e487b7160e01b5f52601160045260245ffd5b92915050565b610700806103745f395ff3fe608060405234801561000f575f5ffd5b506004361061009b575f3560e01c806370a082311161006357806370a0823114610114578063902d55a51461013c57806395d89b411461014d578063a9059cbb14610155578063dd62ed3e14610168575f5ffd5b806306fdde031461009f578063095ea7b3146100bd57806318160ddd146100e057806323b872dd146100f2578063313ce56714610105575b5f5ffd5b6100a76101a0565b6040516100b49190610570565b60405180910390f35b6100d06100cb3660046105c0565b610230565b60405190151581526020016100b4565b6002545b6040519081526020016100b4565b6100d06101003660046105e8565b610249565b604051601281526020016100b4565b6100e4610122366004610622565b6001600160a01b03165f9081526020819052604090205490565b6100e469d3c21bcecceda100000081565b6100a761026c565b6100d06101633660046105c0565b61027b565b6100e4610176366004610642565b6001600160a01b039182165f90815260016020908152604080832093909416825291909152205490565b6060600380546101af90610673565b80601f01602080910402602001604051908101604052809291908181526020018280546101db90610673565b80156102265780601f106101fd57610100808354040283529160200191610226565b820191905f5260205f20905b81548152906001019060200180831161020957829003601f168201915b5050505050905090565b5f3361023d818585610288565b60019150505b92915050565b5f3361025685828561029a565b61026185858561031b565b506001949350505050565b6060600480546101af90610673565b5f3361023d81858561031b565b6102958383836001610378565b505050565b6001600160a01b038381165f908152600160209081526040808320938616835292905220545f19811015610315578181101561030757604051637dc7a0d960e11b81526001600160a01b038416600482015260248101829052604481018390526064015b60405180910390fd5b61031584848484035f610378565b50505050565b6001600160a01b03831661034457604051634b637e8f60e11b81525f60048201526024016102fe565b6001600160a01b03821661036d5760405163ec442f0560e01b81525f60048201526024016102fe565b61029583838361044a565b6001600160a01b0384166103a15760405163e602df0560e01b81525f60048201526024016102fe565b6001600160a01b0383166103ca57604051634a1406b160e11b81525f60048201526024016102fe565b6001600160a01b038085165f908152600160209081526040808320938716835292905220829055801561031557826001600160a01b0316846001600160a01b03167f8c5be1e5ebec7d5bd14f71427d1e84f3dd0314c0f7b2291e5b200ac8c7c3b9258460405161043c91815260200190565b60405180910390a350505050565b6001600160a01b038316610474578060025f82825461046991906106ab565b909155506104e49050565b6001600160a01b0383165f90815260208190526040902054818110156104c65760405163391434e360e21b81526001600160a01b038516600482015260248101829052604481018390526064016102fe565b6001600160a01b0384165f9081526020819052604090209082900390555b6001600160a01b0382166105005760028054829003905561051e565b6001600160a01b0382165f9081526020819052604090208054820190555b816001600160a01b0316836001600160a01b03167fddf252ad1be2c89b69c2b068fc378daa952ba7f163c4a11628f55a4df523b3ef8360405161056391815260200190565b60405180910390a3505050565b602081525f82518060208401528060208501604085015e5f604082850101526040601f19601f83011684010191505092915050565b80356001600160a01b03811681146105bb575f5ffd5b919050565b5f5f604083850312156105d1575f5ffd5b6105da836105a5565b946020939093013593505050565b5f5f5f606084860312156105fa575f5ffd5b610603846105a5565b9250610611602085016105a5565b929592945050506040919091013590565b5f60208284031215610632575f5ffd5b61063b826105a5565b9392505050565b5f5f60408385031215610653575f5ffd5b61065c836105a5565b915061066a602084016105a5565b90509250929050565b600181811c9082168061068757607f821691505b6020821081036106a557634e487b7160e01b5f52602260045260245ffd5b50919050565b8082018082111561024357634e487b7160e01b5f52601160045260245ffdfea2646970667358221220946c8c1e58da71991c28822e51307207ab044dfb93d54ef01f07cec949dcf59a64736f6c634300081c0033",
  "linkReferences": {},
  "deployedLinkReferences": {},
  "immutableReferences": {},
  "inputSourceName": "project/contracts/MyToken.sol",
  "buildInfoId": "solc-0_8_28-2238855480a4fca8aec9575a3912a8e0091e4f52"
}