{
  "_format": "hh3-artifact-1",
  "contractName": "TokenMarket",
  "sourceName": "contracts/TokenSale.sol",
  "abi": [
    {
      "inputs": [
        {
          "internalType": "address",
          "name": "_projectToken",
          "type": "address"
        },
        {
          "internalType": "address",
          "name": "_priceFeed",
          "type": "address"
        },
        {
          "internalType": "uint256",
          "name": "_initialPrice",
          "type": "uint256"
        }
      ],
      "stateMutability": "nonpayable",
      "type": "constructor"
    },
    {
      "inputs": [
        {
          "internalType": "address",
          "name": "owner",
          "type": "address"
        }
      ],
      "name": "OwnableInvalidOwner",
      "type": "error"
    },
    {
      "inputs": [
        {
          "internalType": "address",
          "name": "account",
          "type": "address"
        }
      ],
      "name": "OwnableUnauthorizedAccount",
      "type": "error"
    },
    {
      "anonymous": false,
      "inputs": [
        {
          "indexed": false,
          "internalType": "address",
          "name": "buyer",
          "type": "address"
        },
        {
          "indexed": false,
          "internalType": "uint256",
          "name": "amount",
          "type": "uint256"
        },
        {
          "indexed": false,
          "internalType": "uint256",
          "name": "ethSpent",
          "type": "uint256"
        }
      ],
      "name": "Bought",
      "type": "event"
    },
    {
      "anonymous": false,
      "inputs": [
        {
          "indexed": true,
          "internalType": "address",
          "name": "previousOwner",
          "type": "address"
        },
        {
          "indexed": true,
          "internalType": "address",
          "name": "newOwner",
          "type": "address"
        }
      ],
      "name": "OwnershipTransferred",
      "type": "event"
    },
    {
      "anonymous": false,
      "inputs": [
        {
          "indexed": false,
          "internalType": "address",
          "name": "seller",
          "type": "address"
        },
        {
          "indexed": false,
          "internalType": "uint256",
          "name": "amount",
          "type": "uint256"
        },
        {
          "indexed": false,
          "internalType": "uint256",
          "name": "ethReceived",
          "type": "uint256"
        }
      ],
      "name": "Redeemed",
      "type": "event"
    },
    {
      "inputs": [],
      "name": "buyWithETH",
      "outputs": [],
      "stateMutability": "payable",
      "type": "function"
    },
    {
      "inputs": [],
      "name": "getLatestETHPrice",
      "outputs": [
        {
          "internalType": "uint256",
          "name": "",
          "type": "uint256"
        }
      ],
      "stateMutability": "view",
      "type": "function"
    },
    {
      "inputs": [],
      "name": "owner",
      "outputs": [
        {
          "internalType": "address",
          "name": "",
          "type": "address"
        }
      ],
      "stateMutability": "view",
      "type": "function"
    },
    {
      "inputs": [],
      "name": "projectToken",
      "outputs": [
        {
          "internalType": "contract IERC20",
          "name": "",
          "type": "address"
        }
      ],
      "stateMutability": "view",
      "type": "function"
    },
    {
      "inputs": [
        {
          "internalType": "uint256",
          "name": "_tokenAmount",
          "type": "uint256"
        }
      ],
      "name": "redeemToETH",
      "outputs": [],
      "stateMutability": "nonpayable",
      "type": "function"
    },
    {
      "inputs": [],
      "name": "renounceOwnership",
      "outputs": [],
      "stateMutability": "nonpayable",
      "type": "function"
    },
    {
      "inputs": [],
      "name": "tokenPriceInUSD",
      "outputs": [
        {
          "internalType": "uint256",
          "name": "",
          "type": "uint256"
        }
      ],
      "stateMutability": "view",
      "type": "function"
    },
    {
      "inputs": [
        {
          "internalType": "address",
          "name": "newOwner",
          "type": "address"
        }
      ],
      "name": "transferOwnership",
      "outputs": [],
      "stateMutability": "nonpayable",
      "type": "function"
    },
    {
      "inputs": [
        {
          "internalType": "uint256",
          "name": "_amount",
          "type": "uint256"
        }
      ],
      "name": "withdrawETH",
      "outputs": [],
      "stateMutability": "nonpayable",
      "type": "function"
    },
    {
      "stateMutability": "payable",
      "type": "receive"
    }
  ],
  "bytecode": "0x608060405234801561000f575f5ffd5b5060405161096b38038061096b83398101604081905261002e916100ff565b338061005357604051631e4fbdf760e01b81525f600482015260240160405180910390fd5b61005c81610095565b50600180546001600160a01b039485166001600160a01b0319918216179091556002805493909416921691909117909155600355610138565b5f80546001600160a01b038381166001600160a01b0319831681178455604051919092169283917f8be0079c531659141344cd1fd0a4f28419497f9722a3daafe3b4186f6b6457e09190a35050565b80516001600160a01b03811681146100fa575f5ffd5b919050565b5f5f5f60608486031215610111575f5ffd5b61011a846100e4565b9250610128602085016100e4565b9150604084015190509250925092565b610826806101455f395ff3fe608060405260043610610087575f3560e01c80638da5cb5b116100575780638da5cb5b1461010e578063cf6772c11461012a578063f076e0f114610149578063f14210a61461015e578063f2fde38b1461017d575f5ffd5b8063150d283d146100925780634b60ce771461009c578063715018a6146100d8578063777e0d86146100ec575f5ffd5b3661008e57005b5f5ffd5b61009a61019c565b005b3480156100a7575f5ffd5b506001546100bb906001600160a01b031681565b6040516001600160a01b0390911681526020015b60405180910390f35b3480156100e3575f5ffd5b5061009a610354565b3480156100f7575f5ffd5b50610100610367565b6040519081526020016100cf565b348015610119575f5ffd5b505f546001600160a01b03166100bb565b348015610135575f5ffd5b5061009a6101443660046106c2565b6103fa565b348015610154575f5ffd5b5061010060035481565b348015610169575f5ffd5b5061009a6101783660046106c2565b6105c8565b348015610188575f5ffd5b5061009a6101973660046106d9565b61060a565b5f6101a5610367565b90505f670de0b6b3a76400006101bb8334610706565b6101c5919061072f565b90505f60035482670de0b6b3a76400006101df9190610706565b6101e9919061072f565b6001546040516370a0823160e01b815230600482015291925082916001600160a01b03909116906370a0823190602401602060405180830381865afa158015610234573d5f5f3e3d5ffd5b505050506040513d601f19601f82011682018060405250810190610258919061074e565b101561029d5760405162461bcd60e51b815260206004820152600f60248201526e4c6f7720746f6b656e2073746f636b60881b60448201526064015b60405180910390fd5b60015460405163a9059cbb60e01b8152336004820152602481018390526001600160a01b039091169063a9059cbb906044016020604051808303815f875af11580156102eb573d5f5f3e3d5ffd5b505050506040513d601f19601f8201168201806040525081019061030f9190610765565b506040805133815260208101839052348183015290517fa9a40dec7a304e5915d11358b968c1e8d365992abf20f82285d1df1b30c8e24c9181900360600190a1505050565b61035c610647565b6103655f610673565b565b5f5f60025f9054906101000a90046001600160a01b03166001600160a01b031663feaf968c6040518163ffffffff1660e01b815260040160a060405180830381865afa1580156103b9573d5f5f3e3d5ffd5b505050506040513d601f19601f820116820180604052508101906103dd91906107a2565b505050915050806402540be4006103f49190610706565b91505090565b5f811161043e5760405162461bcd60e51b81526020600482015260126024820152710416d6f756e74206d757374206265203e20360741b6044820152606401610294565b5f670de0b6b3a7640000600354836104569190610706565b610460919061072f565b90505f61046b610367565b90505f8161048184670de0b6b3a7640000610706565b61048b919061072f565b9050804710156104dd5760405162461bcd60e51b815260206004820152601d60248201527f436f6e7472616374206c6f77206f6e20455448206c69717569646974790000006044820152606401610294565b6001546040516323b872dd60e01b8152336004820152306024820152604481018690526001600160a01b03909116906323b872dd906064016020604051808303815f875af1158015610531573d5f5f3e3d5ffd5b505050506040513d601f19601f820116820180604052508101906105559190610765565b50604051339082156108fc029083905f818181858888f19350505050158015610580573d5f5f3e3d5ffd5b5060408051338152602081018690529081018290527ff3a670cd3af7d64b488926880889d08a8585a138ff455227af6737339a1ec2629060600160405180910390a150505050565b6105d0610647565b5f80546040516001600160a01b039091169183156108fc02918491818181858888f19350505050158015610606573d5f5f3e3d5ffd5b5050565b610612610647565b6001600160a01b03811661063b57604051631e4fbdf760e01b81525f6004820152602401610294565b61064481610673565b50565b5f546001600160a01b031633146103655760405163118cdaa760e01b8152336004820152602401610294565b5f80546001600160a01b038381166001600160a01b0319831681178455604051919092169283917f8be0079c531659141344cd1fd0a4f28419497f9722a3daafe3b4186f6b6457e09190a35050565b5f602082840312156106d2575f5ffd5b5035919050565b5f602082840312156106e9575f5ffd5b81356001600160a01b03811681146106ff575f5ffd5b9392505050565b808202811582820484141761072957634e487b7160e01b5f52601160045260245ffd5b92915050565b5f8261074957634e487b7160e01b5f52601260045260245ffd5b500490565b5f6020828403121561075e575f5ffd5b5051919050565b5f60208284031215610775575f5ffd5b815180151581146106ff575f5ffd5b805169ffffffffffffffffffff8116811461079d575f5ffd5b919050565b5f5f5f5f5f60a086880312156107b6575f5ffd5b6107bf86610784565b602087015160408801516060890151929750909550935091506107e460808701610784565b9050929550929590935056fea2646970667358221220c44abba90fc431326df207f1b2df6f9f05e5effe9d1d73bdca2baba8bf27743264736f6c634300081c0033",
  "linkReferences": {},
  "deployedLinkReferences": {},
  "immutableReferences": {},
  "inputSourceName": "project/contracts/TokenSale.sol",
  "buildInfoId": "solc-0_8_28-c415976e1d74f3fc5a383de66d046b5c50226936"
}